{
  "contractName": "Tickets",
  "abi": [
    {
      "inputs": [],
      "stateMutability": "nonpayable",
      "type": "constructor"
    },
    {
      "inputs": [],
      "name": "owner",
      "outputs": [
        {
          "internalType": "address",
          "name": "",
          "type": "address"
        }
      ],
      "stateMutability": "view",
      "type": "function",
      "constant": true
    },
    {
      "inputs": [
        {
          "internalType": "uint256",
          "name": "",
          "type": "uint256"
        }
      ],
      "name": "tickets",
      "outputs": [
        {
          "internalType": "uint256",
          "name": "id",
          "type": "uint256"
        },
        {
          "internalType": "uint256",
          "name": "price",
          "type": "uint256"
        },
        {
          "internalType": "bool",
          "name": "isSold",
          "type": "bool"
        },
        {
          "internalType": "address",
          "name": "owner",
          "type": "address"
        }
      ],
      "stateMutability": "view",
      "type": "function",
      "constant": true
    },
    {
      "inputs": [
        {
          "internalType": "uint256",
          "name": "_index",
          "type": "uint256"
        }
      ],
      "name": "buyTicket",
      "outputs": [],
      "stateMutability": "payable",
      "type": "function",
      "payable": true
    }
  ],
  "bytecode": "0x6080604052336000806101000a81548173ffffffffffffffffffffffffffffffffffffffff021916908373ffffffffffffffffffffffffffffffffffffffff16021790555034801561005057600080fd5b5060005b600a8110156100f3576000600182600a8110610073576100726100f9565b5b6003020160020160016101000a81548173ffffffffffffffffffffffffffffffffffffffff021916908373ffffffffffffffffffffffffffffffffffffffff16021790555067016345785d8a0000600182600a81106100d5576100d46100f9565b5b600302016001018190555080806100eb90610161565b915050610054565b506101aa565b7f4e487b7100000000000000000000000000000000000000000000000000000000600052603260045260246000fd5b7f4e487b7100000000000000000000000000000000000000000000000000000000600052601160045260246000fd5b6000819050919050565b600061016c82610157565b91507fffffffffffffffffffffffffffffffffffffffffffffffffffffffffffffffff82141561019f5761019e610128565b5b600182019050919050565b610436806101b96000396000f3fe6080604052600436106100345760003560e01c806350b447121461003957806367dd74ca146100795780638da5cb5b14610095575b600080fd5b34801561004557600080fd5b50610060600480360381019061005b91906102d9565b6100c0565b6040516100709493929190610371565b60405180910390f35b610093600480360381019061008e91906102d9565b610123565b005b3480156100a157600080fd5b506100aa61027a565b6040516100b791906103b6565b60405180910390f35b600181600a81106100d057600080fd5b600302016000915090508060000154908060010154908060020160009054906101000a900460ff16908060020160019054906101000a900473ffffffffffffffffffffffffffffffffffffffff16905084565b600a81108015610134575060008110155b61013d57600080fd5b600073ffffffffffffffffffffffffffffffffffffffff16600182600a8110610169576101686103d1565b5b6003020160020160019054906101000a900473ffffffffffffffffffffffffffffffffffffffff1673ffffffffffffffffffffffffffffffffffffffff16146101b157600080fd5b60001515600182600a81106101c9576101c86103d1565b5b6003020160020160009054906101000a900460ff161515146101ea57600080fd5b33600182600a81106101ff576101fe6103d1565b5b6003020160020160016101000a81548173ffffffffffffffffffffffffffffffffffffffff021916908373ffffffffffffffffffffffffffffffffffffffff16021790555060018082600a8110610259576102586103d1565b5b6003020160020160006101000a81548160ff02191690831515021790555050565b60008054906101000a900473ffffffffffffffffffffffffffffffffffffffff1681565b600080fd5b6000819050919050565b6102b6816102a3565b81146102c157600080fd5b50565b6000813590506102d3816102ad565b92915050565b6000602082840312156102ef576102ee61029e565b5b60006102fd848285016102c4565b91505092915050565b61030f816102a3565b82525050565b60008115159050919050565b61032a81610315565b82525050565b600073ffffffffffffffffffffffffffffffffffffffff82169050919050565b600061035b82610330565b9050919050565b61036b81610350565b82525050565b60006080820190506103866000830187610306565b6103936020830186610306565b6103a06040830185610321565b6103ad6060830184610362565b95945050505050565b60006020820190506103cb6000830184610362565b92915050565b7f4e487b7100000000000000000000000000000000000000000000000000000000600052603260045260246000fdfea2646970667358221220667fa448bab9c3117e7095f7dd9401198a1efaa3fba1398a276ace7ee44e15bc64736f6c634300080c0033",
  "immutableReferences": {},
  "source": "// SPDX-License-Identifier: MIT\r\npragma solidity ^0.8.3;\r\n\r\nuint256 constant TOTAL_TICKETS = 10;\r\n\r\ncontract Tickets {\r\n    address public owner = msg.sender;\r\n    struct Ticket {\r\n        uint256 id;\r\n        uint256 price;\r\n        bool isSold;\r\n        address owner;\r\n    }\r\n\r\n    Ticket[TOTAL_TICKETS] public tickets;\r\n\r\n    // initialize by creating all tickets\r\n    constructor() {\r\n        for (uint256 index = 0; index < TOTAL_TICKETS; index++) {\r\n            // tickets[index].id = index;\r\n            tickets[index].owner = address(0x0);\r\n            tickets[index].price = 1e17;\r\n        }\r\n    }\r\n\r\n    // Buy ticket function\r\n    function buyTicket(uint256 _index) external payable {\r\n        require(_index < TOTAL_TICKETS && _index >= 0);\r\n        require(tickets[_index].owner == address(0x0));\r\n        require(tickets[_index].isSold == false);\r\n\r\n        tickets[_index].owner = msg.sender;\r\n        tickets[_index].isSold = true;\r\n    }\r\n}\r\n",
  "sourcePath": "/Users/bochie/Documents/Projects/Personal/Web3/hello-world-smart-contract/contracts/Tickets.sol",
  "compiler": {
    "name": "solc",
    "version": "0.8.12+commit.f00d7308.Emscripten.clang"
  },
  "schemaVersion": "3.4.6",
  "updatedAt": "2022-04-23T19:24:39.721Z",
  "networkType": "ethereum",
  "devdoc": {
    "kind": "dev",
    "methods": {},
    "version": 1
  },
  "userdoc": {
    "kind": "user",
    "methods": {},
    "version": 1
  }
}